{
  "_format": "hh-sol-artifact-1",
  "contractName": "OneDistrictOneProduct",
  "sourceName": "contracts/Traceability.sol",
  "abi": [
    {
      "inputs": [
        {
          "internalType": "uint256",
          "name": "_id",
          "type": "uint256"
        },
        {
          "internalType": "uint256",
          "name": "_productId",
          "type": "uint256"
        },
        {
          "internalType": "uint256",
          "name": "_unitTime",
          "type": "uint256"
        },
        {
          "internalType": "string",
          "name": "_location",
          "type": "string"
        },
        {
          "internalType": "string",
          "name": "_description",
          "type": "string"
        }
      ],
      "name": "addCheckpoint",
      "outputs": [],
      "stateMutability": "payable",
      "type": "function"
    },
    {
      "inputs": [],
      "name": "author",
      "outputs": [
        {
          "internalType": "string",
          "name": "",
          "type": "string"
        }
      ],
      "stateMutability": "view",
      "type": "function"
    },
    {
      "inputs": [
        {
          "internalType": "uint256",
          "name": "",
          "type": "uint256"
        }
      ],
      "name": "checkPointKeys",
      "outputs": [
        {
          "internalType": "uint256",
          "name": "",
          "type": "uint256"
        }
      ],
      "stateMutability": "view",
      "type": "function"
    },
    {
      "inputs": [
        {
          "internalType": "uint256",
          "name": "",
          "type": "uint256"
        }
      ],
      "name": "checkpoints",
      "outputs": [
        {
          "internalType": "uint256",
          "name": "id",
          "type": "uint256"
        },
        {
          "internalType": "uint256",
          "name": "productId",
          "type": "uint256"
        },
        {
          "internalType": "uint256",
          "name": "timestamp",
          "type": "uint256"
        },
        {
          "internalType": "string",
          "name": "location",
          "type": "string"
        },
        {
          "internalType": "string",
          "name": "description",
          "type": "string"
        }
      ],
      "stateMutability": "view",
      "type": "function"
    },
    {
      "inputs": [],
      "name": "getAuthor",
      "outputs": [
        {
          "internalType": "string",
          "name": "",
          "type": "string"
        }
      ],
      "stateMutability": "view",
      "type": "function"
    },
    {
      "inputs": [
        {
          "internalType": "uint256",
          "name": "_id",
          "type": "uint256"
        }
      ],
      "name": "getCheckpoint",
      "outputs": [
        {
          "components": [
            {
              "internalType": "uint256",
              "name": "id",
              "type": "uint256"
            },
            {
              "internalType": "uint256",
              "name": "timestamp",
              "type": "uint256"
            },
            {
              "internalType": "string",
              "name": "location",
              "type": "string"
            },
            {
              "internalType": "string",
              "name": "description",
              "type": "string"
            }
          ],
          "internalType": "struct OneDistrictOneProduct.CheckpointDetails",
          "name": "",
          "type": "tuple"
        }
      ],
      "stateMutability": "view",
      "type": "function"
    },
    {
      "inputs": [
        {
          "internalType": "uint256",
          "name": "_productId",
          "type": "uint256"
        }
      ],
      "name": "getCheckpointsByProductId",
      "outputs": [
        {
          "components": [
            {
              "internalType": "uint256",
              "name": "id",
              "type": "uint256"
            },
            {
              "internalType": "uint256",
              "name": "timestamp",
              "type": "uint256"
            },
            {
              "internalType": "string",
              "name": "location",
              "type": "string"
            },
            {
              "internalType": "string",
              "name": "description",
              "type": "string"
            }
          ],
          "internalType": "struct OneDistrictOneProduct.CheckpointDetails[]",
          "name": "",
          "type": "tuple[]"
        }
      ],
      "stateMutability": "view",
      "type": "function"
    }
  ],
  "bytecode": "0x60806040526040518060400160405280600381526020017f4172430000000000000000000000000000000000000000000000000000000000815250600090816200004a9190620002d9565b503480156200005857600080fd5b50620003c0565b600081519050919050565b7f4e487b7100000000000000000000000000000000000000000000000000000000600052604160045260246000fd5b7f4e487b7100000000000000000000000000000000000000000000000000000000600052602260045260246000fd5b60006002820490506001821680620000e157607f821691505b602082108103620000f757620000f662000099565b5b50919050565b60008190508160005260206000209050919050565b60006020601f8301049050919050565b600082821b905092915050565b600060088302620001617fffffffffffffffffffffffffffffffffffffffffffffffffffffffffffffffff8262000122565b6200016d868362000122565b95508019841693508086168417925050509392505050565b6000819050919050565b6000819050919050565b6000620001ba620001b4620001ae8462000185565b6200018f565b62000185565b9050919050565b6000819050919050565b620001d68362000199565b620001ee620001e582620001c1565b8484546200012f565b825550505050565b600090565b62000205620001f6565b62000212818484620001cb565b505050565b5b818110156200023a576200022e600082620001fb565b60018101905062000218565b5050565b601f82111562000289576200025381620000fd565b6200025e8462000112565b810160208510156200026e578190505b620002866200027d8562000112565b83018262000217565b50505b505050565b600082821c905092915050565b6000620002ae600019846008026200028e565b1980831691505092915050565b6000620002c983836200029b565b9150826002028217905092915050565b620002e4826200005f565b67ffffffffffffffff8111156200030057620002ff6200006a565b5b6200030c8254620000c8565b620003198282856200023e565b600060209050601f8311600181146200035157600084156200033c578287015190505b620003488582620002bb565b865550620003b8565b601f1984166200036186620000fd565b60005b828110156200038b5784890151825560018201915060208501945060208101905062000364565b86831015620003ab5784890151620003a7601f8916826200029b565b8355505b6001600288020188555050505b505050505050565b61162c80620003d06000396000f3fe6080604052600436106100705760003560e01c8063a5faa1251161004e578063a5faa1251461010b578063a6c3e6b914610136578063b8a2425214610161578063fbf55745146101a257610070565b80630eae63fc1461007557806320fc48811461009157806359e31f7c146100ce575b600080fd5b61008f600480360381019061008a9190610ca3565b6101df565b005b34801561009d57600080fd5b506100b860048036038101906100b39190610d56565b610332565b6040516100c59190610e7b565b60405180910390f35b3480156100da57600080fd5b506100f560048036038101906100f09190610d56565b610567565b6040516101029190610eac565b60405180910390f35b34801561011757600080fd5b5061012061058b565b60405161012d9190610f11565b60405180910390f35b34801561014257600080fd5b5061014b61061d565b6040516101589190610f11565b60405180910390f35b34801561016d57600080fd5b5061018860048036038101906101839190610d56565b6106ab565b604051610199959493929190610f33565b60405180910390f35b3480156101ae57600080fd5b506101c960048036038101906101c49190610d56565b6107f1565b6040516101d691906110c0565b60405180910390f35b60008511610222576040517f08c379a00000000000000000000000000000000000000000000000000000000081526004016102199061112e565b60405180910390fd5b600060016000878152602001908152602001600020600001541461027b576040517f08c379a0000000000000000000000000000000000000000000000000000000008152600401610272906111c0565b60405180910390fd5b6040518060a00160405280868152602001858152602001848152602001838152602001828152506001600087815260200190815260200160002060008201518160000155602082015181600101556040820151816002015560608201518160030190816102e891906113ec565b5060808201518160040190816102fe91906113ec565b5090505060028590806001815401808255809150506001900390600052602060002001600090919091909150555050505050565b61033a610aeb565b6000821161037d576040517f08c379a00000000000000000000000000000000000000000000000000000000081526004016103749061112e565b60405180910390fd5b6000600160008481526020019081526020016000206040518060a00160405290816000820154815260200160018201548152602001600282015481526020016003820180546103cb9061120f565b80601f01602080910402602001604051908101604052809291908181526020018280546103f79061120f565b80156104445780601f1061041957610100808354040283529160200191610444565b820191906000526020600020905b81548152906001019060200180831161042757829003601f168201915b5050505050815260200160048201805461045d9061120f565b80601f01602080910402602001604051908101604052809291908181526020018280546104899061120f565b80156104d65780601f106104ab576101008083540402835291602001916104d6565b820191906000526020600020905b8154815290600101906020018083116104b957829003601f168201915b50505050508152505090506000816000015103610528576040517f08c379a000000000000000000000000000000000000000000000000000000000815260040161051f90611530565b60405180910390fd5b60006040518060800160405280836000015181526020018360400151815260200183606001518152602001836080015181525090508092505050919050565b6002818154811061057757600080fd5b906000526020600020016000915090505481565b60606000805461059a9061120f565b80601f01602080910402602001604051908101604052809291908181526020018280546105c69061120f565b80156106135780601f106105e857610100808354040283529160200191610613565b820191906000526020600020905b8154815290600101906020018083116105f657829003601f168201915b5050505050905090565b6000805461062a9061120f565b80601f01602080910402602001604051908101604052809291908181526020018280546106569061120f565b80156106a35780601f10610678576101008083540402835291602001916106a3565b820191906000526020600020905b81548152906001019060200180831161068657829003601f168201915b505050505081565b60016020528060005260406000206000915090508060000154908060010154908060020154908060030180546106e09061120f565b80601f016020809104026020016040519081016040528092919081815260200182805461070c9061120f565b80156107595780601f1061072e57610100808354040283529160200191610759565b820191906000526020600020905b81548152906001019060200180831161073c57829003601f168201915b50505050509080600401805461076e9061120f565b80601f016020809104026020016040519081016040528092919081815260200182805461079a9061120f565b80156107e75780601f106107bc576101008083540402835291602001916107e7565b820191906000526020600020905b8154815290600101906020018083116107ca57829003601f168201915b5050505050905085565b6060600060028054905067ffffffffffffffff81111561081457610813610b78565b5b60405190808252806020026020018201604052801561084d57816020015b61083a610aeb565b8152602001906001900390816108325790505b5090506000805b600280549050811015610add5784600160006002848154811061087a57610879611550565b5b906000526020600020015481526020019081526020016000206001015403610aca57604051806080016040528060016000600285815481106108bf576108be611550565b5b9060005260206000200154815260200190815260200160002060000154815260200160016000600285815481106108f9576108f8611550565b5b90600052602060002001548152602001908152602001600020600201548152602001600160006002858154811061093357610932611550565b5b90600052602060002001548152602001908152602001600020600301805461095a9061120f565b80601f01602080910402602001604051908101604052809291908181526020018280546109869061120f565b80156109d35780601f106109a8576101008083540402835291602001916109d3565b820191906000526020600020905b8154815290600101906020018083116109b657829003601f168201915b5050505050815260200160016000600285815481106109f5576109f4611550565b5b906000526020600020015481526020019081526020016000206004018054610a1c9061120f565b80601f0160208091040260200160405190810160405280929190818152602001828054610a489061120f565b8015610a955780601f10610a6a57610100808354040283529160200191610a95565b820191906000526020600020905b815481529060010190602001808311610a7857829003601f168201915b5050505050815250838381518110610ab057610aaf611550565b5b60200260200101819052508180610ac6906115ae565b9250505b8080610ad5906115ae565b915050610854565b508082528192505050919050565b6040518060800160405280600081526020016000815260200160608152602001606081525090565b6000604051905090565b600080fd5b600080fd5b6000819050919050565b610b3a81610b27565b8114610b4557600080fd5b50565b600081359050610b5781610b31565b92915050565b600080fd5b600080fd5b6000601f19601f8301169050919050565b7f4e487b7100000000000000000000000000000000000000000000000000000000600052604160045260246000fd5b610bb082610b67565b810181811067ffffffffffffffff82111715610bcf57610bce610b78565b5b80604052505050565b6000610be2610b13565b9050610bee8282610ba7565b919050565b600067ffffffffffffffff821115610c0e57610c0d610b78565b5b610c1782610b67565b9050602081019050919050565b82818337600083830152505050565b6000610c46610c4184610bf3565b610bd8565b905082815260208101848484011115610c6257610c61610b62565b5b610c6d848285610c24565b509392505050565b600082601f830112610c8a57610c89610b5d565b5b8135610c9a848260208601610c33565b91505092915050565b600080600080600060a08688031215610cbf57610cbe610b1d565b5b6000610ccd88828901610b48565b9550506020610cde88828901610b48565b9450506040610cef88828901610b48565b935050606086013567ffffffffffffffff811115610d1057610d0f610b22565b5b610d1c88828901610c75565b925050608086013567ffffffffffffffff811115610d3d57610d3c610b22565b5b610d4988828901610c75565b9150509295509295909350565b600060208284031215610d6c57610d6b610b1d565b5b6000610d7a84828501610b48565b91505092915050565b610d8c81610b27565b82525050565b600081519050919050565b600082825260208201905092915050565b60005b83811015610dcc578082015181840152602081019050610db1565b60008484015250505050565b6000610de382610d92565b610ded8185610d9d565b9350610dfd818560208601610dae565b610e0681610b67565b840191505092915050565b6000608083016000830151610e296000860182610d83565b506020830151610e3c6020860182610d83565b5060408301518482036040860152610e548282610dd8565b91505060608301518482036060860152610e6e8282610dd8565b9150508091505092915050565b60006020820190508181036000830152610e958184610e11565b905092915050565b610ea681610b27565b82525050565b6000602082019050610ec16000830184610e9d565b92915050565b600082825260208201905092915050565b6000610ee382610d92565b610eed8185610ec7565b9350610efd818560208601610dae565b610f0681610b67565b840191505092915050565b60006020820190508181036000830152610f2b8184610ed8565b905092915050565b600060a082019050610f486000830188610e9d565b610f556020830187610e9d565b610f626040830186610e9d565b8181036060830152610f748185610ed8565b90508181036080830152610f888184610ed8565b90509695505050505050565b600081519050919050565b600082825260208201905092915050565b6000819050602082019050919050565b6000608083016000830151610fd86000860182610d83565b506020830151610feb6020860182610d83565b50604083015184820360408601526110038282610dd8565b9150506060830151848203606086015261101d8282610dd8565b9150508091505092915050565b60006110368383610fc0565b905092915050565b6000602082019050919050565b600061105682610f94565b6110608185610f9f565b93508360208202850161107285610fb0565b8060005b858110156110ae578484038952815161108f858261102a565b945061109a8361103e565b925060208a01995050600181019050611076565b50829750879550505050505092915050565b600060208201905081810360008301526110da818461104b565b905092915050565b7f496e76616c696420636865636b706f696e742049440000000000000000000000600082015250565b6000611118601583610ec7565b9150611123826110e2565b602082019050919050565b600060208201905081810360008301526111478161110b565b9050919050565b7f436865636b706f696e742077697468207468697320494420616c72656164792060008201527f6578697374730000000000000000000000000000000000000000000000000000602082015250565b60006111aa602683610ec7565b91506111b58261114e565b604082019050919050565b600060208201905081810360008301526111d98161119d565b9050919050565b7f4e487b7100000000000000000000000000000000000000000000000000000000600052602260045260246000fd5b6000600282049050600182168061122757607f821691505b60208210810361123a576112396111e0565b5b50919050565b60008190508160005260206000209050919050565b60006020601f8301049050919050565b600082821b905092915050565b6000600883026112a27fffffffffffffffffffffffffffffffffffffffffffffffffffffffffffffffff82611265565b6112ac8683611265565b95508019841693508086168417925050509392505050565b6000819050919050565b60006112e96112e46112df84610b27565b6112c4565b610b27565b9050919050565b6000819050919050565b611303836112ce565b61131761130f826112f0565b848454611272565b825550505050565b600090565b61132c61131f565b6113378184846112fa565b505050565b5b8181101561135b57611350600082611324565b60018101905061133d565b5050565b601f8211156113a05761137181611240565b61137a84611255565b81016020851015611389578190505b61139d61139585611255565b83018261133c565b50505b505050565b600082821c905092915050565b60006113c3600019846008026113a5565b1980831691505092915050565b60006113dc83836113b2565b9150826002028217905092915050565b6113f582610d92565b67ffffffffffffffff81111561140e5761140d610b78565b5b611418825461120f565b61142382828561135f565b600060209050601f8311600181146114565760008415611444578287015190505b61144e85826113d0565b8655506114b6565b601f19841661146486611240565b60005b8281101561148c57848901518255600182019150602085019450602081019050611467565b868310156114a957848901516114a5601f8916826113b2565b8355505b6001600288020188555050505b505050505050565b7f436865636b706f696e742077697468207468697320494420444f45534e27542060008201527f6578697374730000000000000000000000000000000000000000000000000000602082015250565b600061151a602683610ec7565b9150611525826114be565b604082019050919050565b600060208201905081810360008301526115498161150d565b9050919050565b7f4e487b7100000000000000000000000000000000000000000000000000000000600052603260045260246000fd5b7f4e487b7100000000000000000000000000000000000000000000000000000000600052601160045260246000fd5b60006115b982610b27565b91507fffffffffffffffffffffffffffffffffffffffffffffffffffffffffffffffff82036115eb576115ea61157f565b5b60018201905091905056fea26469706673582212204a7d2529ae15ec270cc47d590762a139f3436ed24a1f3dc6672d82f1748761fb64736f6c63430008130033",
  "linkReferences": {},
  "deployedLinkReferences": {}
}