{
  "_format": "hh-sol-artifact-1",
  "contractName": "OneDistrictOneProduct",
  "sourceName": "contracts/Traceability.sol",
  "abi": [
    {
      "inputs": [
        {
          "internalType": "uint256",
          "name": "_id",
          "type": "uint256"
        },
        {
          "internalType": "uint256",
          "name": "_productId",
          "type": "uint256"
        },
        {
          "internalType": "string",
          "name": "_location",
          "type": "string"
        },
        {
          "internalType": "string",
          "name": "_description",
          "type": "string"
        }
      ],
      "name": "addCheckpoint",
      "outputs": [],
      "stateMutability": "payable",
      "type": "function"
    },
    {
      "inputs": [],
      "name": "author",
      "outputs": [
        {
          "internalType": "string",
          "name": "",
          "type": "string"
        }
      ],
      "stateMutability": "view",
      "type": "function"
    },
    {
      "inputs": [
        {
          "internalType": "uint256",
          "name": "",
          "type": "uint256"
        }
      ],
      "name": "checkPointKeys",
      "outputs": [
        {
          "internalType": "uint256",
          "name": "",
          "type": "uint256"
        }
      ],
      "stateMutability": "view",
      "type": "function"
    },
    {
      "inputs": [
        {
          "internalType": "uint256",
          "name": "",
          "type": "uint256"
        }
      ],
      "name": "checkpoints",
      "outputs": [
        {
          "internalType": "uint256",
          "name": "id",
          "type": "uint256"
        },
        {
          "internalType": "uint256",
          "name": "productId",
          "type": "uint256"
        },
        {
          "internalType": "uint256",
          "name": "timestamp",
          "type": "uint256"
        },
        {
          "internalType": "string",
          "name": "location",
          "type": "string"
        },
        {
          "internalType": "string",
          "name": "description",
          "type": "string"
        }
      ],
      "stateMutability": "view",
      "type": "function"
    },
    {
      "inputs": [],
      "name": "getAuthor",
      "outputs": [
        {
          "internalType": "string",
          "name": "",
          "type": "string"
        }
      ],
      "stateMutability": "view",
      "type": "function"
    },
    {
      "inputs": [
        {
          "internalType": "uint256",
          "name": "_id",
          "type": "uint256"
        }
      ],
      "name": "getCheckpoint",
      "outputs": [
        {
          "components": [
            {
              "internalType": "uint256",
              "name": "id",
              "type": "uint256"
            },
            {
              "internalType": "uint256",
              "name": "timestamp",
              "type": "uint256"
            },
            {
              "internalType": "string",
              "name": "location",
              "type": "string"
            },
            {
              "internalType": "string",
              "name": "description",
              "type": "string"
            }
          ],
          "internalType": "struct OneDistrictOneProduct.CheckpointDetails",
          "name": "",
          "type": "tuple"
        }
      ],
      "stateMutability": "view",
      "type": "function"
    },
    {
      "inputs": [
        {
          "internalType": "uint256",
          "name": "_productId",
          "type": "uint256"
        }
      ],
      "name": "getCheckpointsByProductId",
      "outputs": [
        {
          "components": [
            {
              "internalType": "uint256",
              "name": "id",
              "type": "uint256"
            },
            {
              "internalType": "uint256",
              "name": "timestamp",
              "type": "uint256"
            },
            {
              "internalType": "string",
              "name": "location",
              "type": "string"
            },
            {
              "internalType": "string",
              "name": "description",
              "type": "string"
            }
          ],
          "internalType": "struct OneDistrictOneProduct.CheckpointDetails[]",
          "name": "",
          "type": "tuple[]"
        }
      ],
      "stateMutability": "view",
      "type": "function"
    }
  ],
  "bytecode": "0x60806040526040518060400160405280600381526020017f4172430000000000000000000000000000000000000000000000000000000000815250600090816200004a9190620002d9565b503480156200005857600080fd5b50620003c0565b600081519050919050565b7f4e487b7100000000000000000000000000000000000000000000000000000000600052604160045260246000fd5b7f4e487b7100000000000000000000000000000000000000000000000000000000600052602260045260246000fd5b60006002820490506001821680620000e157607f821691505b602082108103620000f757620000f662000099565b5b50919050565b60008190508160005260206000209050919050565b60006020601f8301049050919050565b600082821b905092915050565b600060088302620001617fffffffffffffffffffffffffffffffffffffffffffffffffffffffffffffffff8262000122565b6200016d868362000122565b95508019841693508086168417925050509392505050565b6000819050919050565b6000819050919050565b6000620001ba620001b4620001ae8462000185565b6200018f565b62000185565b9050919050565b6000819050919050565b620001d68362000199565b620001ee620001e582620001c1565b8484546200012f565b825550505050565b600090565b62000205620001f6565b62000212818484620001cb565b505050565b5b818110156200023a576200022e600082620001fb565b60018101905062000218565b5050565b601f82111562000289576200025381620000fd565b6200025e8462000112565b810160208510156200026e578190505b620002866200027d8562000112565b83018262000217565b50505b505050565b600082821c905092915050565b6000620002ae600019846008026200028e565b1980831691505092915050565b6000620002c983836200029b565b9150826002028217905092915050565b620002e4826200005f565b67ffffffffffffffff8111156200030057620002ff6200006a565b5b6200030c8254620000c8565b620003198282856200023e565b600060209050601f8311600181146200035157600084156200033c578287015190505b620003488582620002bb565b865550620003b8565b601f1984166200036186620000fd565b60005b828110156200038b5784890151825560018201915060208501945060208101905062000364565b86831015620003ab5784890151620003a7601f8916826200029b565b8355505b6001600288020188555050505b505050505050565b61161d80620003d06000396000f3fe6080604052600436106100705760003560e01c8063a6c3e6b91161004e578063a6c3e6b91461011a578063b8a2425214610145578063e310f4e514610186578063fbf55745146101a257610070565b806320fc48811461007557806359e31f7c146100b2578063a5faa125146100ef575b600080fd5b34801561008157600080fd5b5061009c60048036038101906100979190610b62565b6101df565b6040516100a99190610c98565b60405180910390f35b3480156100be57600080fd5b506100d960048036038101906100d49190610b62565b610414565b6040516100e69190610cc9565b60405180910390f35b3480156100fb57600080fd5b50610104610438565b6040516101119190610d2e565b60405180910390f35b34801561012657600080fd5b5061012f6104ca565b60405161013c9190610d2e565b60405180910390f35b34801561015157600080fd5b5061016c60048036038101906101679190610b62565b610558565b60405161017d959493929190610d50565b60405180910390f35b6101a0600480360381019061019b9190610ee6565b61069e565b005b3480156101ae57600080fd5b506101c960048036038101906101c49190610b62565b6107f6565b6040516101d691906110b1565b60405180910390f35b6101e7610af0565b6000821161022a576040517f08c379a00000000000000000000000000000000000000000000000000000000081526004016102219061111f565b60405180910390fd5b6000600160008481526020019081526020016000206040518060a00160405290816000820154815260200160018201548152602001600282015481526020016003820180546102789061116e565b80601f01602080910402602001604051908101604052809291908181526020018280546102a49061116e565b80156102f15780601f106102c6576101008083540402835291602001916102f1565b820191906000526020600020905b8154815290600101906020018083116102d457829003601f168201915b5050505050815260200160048201805461030a9061116e565b80601f01602080910402602001604051908101604052809291908181526020018280546103369061116e565b80156103835780601f1061035857610100808354040283529160200191610383565b820191906000526020600020905b81548152906001019060200180831161036657829003601f168201915b505050505081525050905060008160000151036103d5576040517f08c379a00000000000000000000000000000000000000000000000000000000081526004016103cc90611211565b60405180910390fd5b60006040518060800160405280836000015181526020018360400151815260200183606001518152602001836080015181525090508092505050919050565b6002818154811061042457600080fd5b906000526020600020016000915090505481565b6060600080546104479061116e565b80601f01602080910402602001604051908101604052809291908181526020018280546104739061116e565b80156104c05780601f10610495576101008083540402835291602001916104c0565b820191906000526020600020905b8154815290600101906020018083116104a357829003601f168201915b5050505050905090565b600080546104d79061116e565b80601f01602080910402602001604051908101604052809291908181526020018280546105039061116e565b80156105505780601f1061052557610100808354040283529160200191610550565b820191906000526020600020905b81548152906001019060200180831161053357829003601f168201915b505050505081565b600160205280600052604060002060009150905080600001549080600101549080600201549080600301805461058d9061116e565b80601f01602080910402602001604051908101604052809291908181526020018280546105b99061116e565b80156106065780601f106105db57610100808354040283529160200191610606565b820191906000526020600020905b8154815290600101906020018083116105e957829003601f168201915b50505050509080600401805461061b9061116e565b80601f01602080910402602001604051908101604052809291908181526020018280546106479061116e565b80156106945780601f1061066957610100808354040283529160200191610694565b820191906000526020600020905b81548152906001019060200180831161067757829003601f168201915b5050505050905085565b600084116106e1576040517f08c379a00000000000000000000000000000000000000000000000000000000081526004016106d89061111f565b60405180910390fd5b600060016000868152602001908152602001600020600001541461073a576040517f08c379a0000000000000000000000000000000000000000000000000000000008152600401610731906112a3565b60405180910390fd5b60004290506040518060a00160405280868152602001858152602001828152602001848152602001838152506001600087815260200190815260200160002060008201518160000155602082015181600101556040820151816002015560608201518160030190816107ac919061146f565b5060808201518160040190816107c2919061146f565b5090505060028590806001815401808255809150506001900390600052602060002001600090919091909150555050505050565b6060600060028054905067ffffffffffffffff81111561081957610818610dbb565b5b60405190808252806020026020018201604052801561085257816020015b61083f610af0565b8152602001906001900390816108375790505b5090506000805b600280549050811015610ae25784600160006002848154811061087f5761087e611541565b5b906000526020600020015481526020019081526020016000206001015403610acf57604051806080016040528060016000600285815481106108c4576108c3611541565b5b9060005260206000200154815260200190815260200160002060000154815260200160016000600285815481106108fe576108fd611541565b5b90600052602060002001548152602001908152602001600020600201548152602001600160006002858154811061093857610937611541565b5b90600052602060002001548152602001908152602001600020600301805461095f9061116e565b80601f016020809104026020016040519081016040528092919081815260200182805461098b9061116e565b80156109d85780601f106109ad576101008083540402835291602001916109d8565b820191906000526020600020905b8154815290600101906020018083116109bb57829003601f168201915b5050505050815260200160016000600285815481106109fa576109f9611541565b5b906000526020600020015481526020019081526020016000206004018054610a219061116e565b80601f0160208091040260200160405190810160405280929190818152602001828054610a4d9061116e565b8015610a9a5780601f10610a6f57610100808354040283529160200191610a9a565b820191906000526020600020905b815481529060010190602001808311610a7d57829003601f168201915b5050505050815250838381518110610ab557610ab4611541565b5b60200260200101819052508180610acb9061159f565b9250505b8080610ada9061159f565b915050610859565b508082528192505050919050565b6040518060800160405280600081526020016000815260200160608152602001606081525090565b6000604051905090565b600080fd5b600080fd5b6000819050919050565b610b3f81610b2c565b8114610b4a57600080fd5b50565b600081359050610b5c81610b36565b92915050565b600060208284031215610b7857610b77610b22565b5b6000610b8684828501610b4d565b91505092915050565b610b9881610b2c565b82525050565b600081519050919050565b600082825260208201905092915050565b60005b83811015610bd8578082015181840152602081019050610bbd565b60008484015250505050565b6000601f19601f8301169050919050565b6000610c0082610b9e565b610c0a8185610ba9565b9350610c1a818560208601610bba565b610c2381610be4565b840191505092915050565b6000608083016000830151610c466000860182610b8f565b506020830151610c596020860182610b8f565b5060408301518482036040860152610c718282610bf5565b91505060608301518482036060860152610c8b8282610bf5565b9150508091505092915050565b60006020820190508181036000830152610cb28184610c2e565b905092915050565b610cc381610b2c565b82525050565b6000602082019050610cde6000830184610cba565b92915050565b600082825260208201905092915050565b6000610d0082610b9e565b610d0a8185610ce4565b9350610d1a818560208601610bba565b610d2381610be4565b840191505092915050565b60006020820190508181036000830152610d488184610cf5565b905092915050565b600060a082019050610d656000830188610cba565b610d726020830187610cba565b610d7f6040830186610cba565b8181036060830152610d918185610cf5565b90508181036080830152610da58184610cf5565b90509695505050505050565b600080fd5b600080fd5b7f4e487b7100000000000000000000000000000000000000000000000000000000600052604160045260246000fd5b610df382610be4565b810181811067ffffffffffffffff82111715610e1257610e11610dbb565b5b80604052505050565b6000610e25610b18565b9050610e318282610dea565b919050565b600067ffffffffffffffff821115610e5157610e50610dbb565b5b610e5a82610be4565b9050602081019050919050565b82818337600083830152505050565b6000610e89610e8484610e36565b610e1b565b905082815260208101848484011115610ea557610ea4610db6565b5b610eb0848285610e67565b509392505050565b600082601f830112610ecd57610ecc610db1565b5b8135610edd848260208601610e76565b91505092915050565b60008060008060808587031215610f0057610eff610b22565b5b6000610f0e87828801610b4d565b9450506020610f1f87828801610b4d565b935050604085013567ffffffffffffffff811115610f4057610f3f610b27565b5b610f4c87828801610eb8565b925050606085013567ffffffffffffffff811115610f6d57610f6c610b27565b5b610f7987828801610eb8565b91505092959194509250565b600081519050919050565b600082825260208201905092915050565b6000819050602082019050919050565b6000608083016000830151610fc96000860182610b8f565b506020830151610fdc6020860182610b8f565b5060408301518482036040860152610ff48282610bf5565b9150506060830151848203606086015261100e8282610bf5565b9150508091505092915050565b60006110278383610fb1565b905092915050565b6000602082019050919050565b600061104782610f85565b6110518185610f90565b93508360208202850161106385610fa1565b8060005b8581101561109f5784840389528151611080858261101b565b945061108b8361102f565b925060208a01995050600181019050611067565b50829750879550505050505092915050565b600060208201905081810360008301526110cb818461103c565b905092915050565b7f496e76616c696420636865636b706f696e742049440000000000000000000000600082015250565b6000611109601583610ce4565b9150611114826110d3565b602082019050919050565b60006020820190508181036000830152611138816110fc565b9050919050565b7f4e487b7100000000000000000000000000000000000000000000000000000000600052602260045260246000fd5b6000600282049050600182168061118657607f821691505b6020821081036111995761119861113f565b5b50919050565b7f436865636b706f696e742077697468207468697320494420444f45534e27542060008201527f6578697374730000000000000000000000000000000000000000000000000000602082015250565b60006111fb602683610ce4565b91506112068261119f565b604082019050919050565b6000602082019050818103600083015261122a816111ee565b9050919050565b7f436865636b706f696e742077697468207468697320494420616c72656164792060008201527f6578697374730000000000000000000000000000000000000000000000000000602082015250565b600061128d602683610ce4565b915061129882611231565b604082019050919050565b600060208201905081810360008301526112bc81611280565b9050919050565b60008190508160005260206000209050919050565b60006020601f8301049050919050565b600082821b905092915050565b6000600883026113257fffffffffffffffffffffffffffffffffffffffffffffffffffffffffffffffff826112e8565b61132f86836112e8565b95508019841693508086168417925050509392505050565b6000819050919050565b600061136c61136761136284610b2c565b611347565b610b2c565b9050919050565b6000819050919050565b61138683611351565b61139a61139282611373565b8484546112f5565b825550505050565b600090565b6113af6113a2565b6113ba81848461137d565b505050565b5b818110156113de576113d36000826113a7565b6001810190506113c0565b5050565b601f821115611423576113f4816112c3565b6113fd846112d8565b8101602085101561140c578190505b611420611418856112d8565b8301826113bf565b50505b505050565b600082821c905092915050565b600061144660001984600802611428565b1980831691505092915050565b600061145f8383611435565b9150826002028217905092915050565b61147882610b9e565b67ffffffffffffffff81111561149157611490610dbb565b5b61149b825461116e565b6114a68282856113e2565b600060209050601f8311600181146114d957600084156114c7578287015190505b6114d18582611453565b865550611539565b601f1984166114e7866112c3565b60005b8281101561150f578489015182556001820191506020850194506020810190506114ea565b8683101561152c5784890151611528601f891682611435565b8355505b6001600288020188555050505b505050505050565b7f4e487b7100000000000000000000000000000000000000000000000000000000600052603260045260246000fd5b7f4e487b7100000000000000000000000000000000000000000000000000000000600052601160045260246000fd5b60006115aa82610b2c565b91507fffffffffffffffffffffffffffffffffffffffffffffffffffffffffffffffff82036115dc576115db611570565b5b60018201905091905056fea26469706673582212209ba5702ab2a614de1942c566f15b6641cde781744d8a8078e85f26151bb4151064736f6c63430008130033",
  "linkReferences": {},
  "deployedLinkReferences": {}
}